:10000000AD2AFF3FFF3FFF3F000008000830031309
:100010008312FB00FF30FA00FB0B0F281228FA0BAB
:100020000F280C281E30FA00FA0B14280800103094
:1000300003138312FA00FA0B1B28000008000313B5
:10004000831220088400831664080319272880017E
:10005000E41B8015641B0015E41A8014641A001454
:1000600083122108031936288013372880170017B8
:1000700004208316640803193D2800138001E41945
:10008000801564190015E418801464180014831294
:10009000210803194D2880134E28801700170420CB
:1000A0000013210803195628062057281720080096
:1000B00003138312710DF80DF90D7408F802750819
:1000C000031C750FF902F00DF10D0F30FC00710DDE
:1000D000F80DF90D7408701C7328F8027508031CDC
:1000E000750FF9027828F80775080318750FF907D6
:1000F000F00DF10DFC0B6728701884287408F807C0
:1001000075080318750FF907000008000313831220
:10011000A1016B088316E4001F200130A100080034
:1001200003138312EB01EE01EF011030ED00220802
:10013000840004306F020318BE286D0880000000A0
:10014000000000000000000000000F300005F0007B
:100150007008EC0070080319B8286E08EB006C08F2
:100160000319B628EC0CEC13EB0AAF280430EF00AF
:10017000ED0D6D100430EE07EF0A99286B08F000C2
:10018000080003138312F8010830FC00700DF80D0D
:100190007408F8020318CE28F8070310F00DFC0BC2
:1001A000C628080003138312FD01F901F801710844
:1001B00070040319003471087506FA00FA1BFD0972
:1001C000FB01F51FE828F409F509F40A0319F50AFB
:1001D000F11FEF28F009F109F00A0319F10A71087B
:1001E0007504FA00FA1B042958207B181729FD1FF3
:1001F0000034F009F109F00A0319F10AF809F909C4
:10020000F80A0319F90A0034F51F1329F11B0F2905
:100210007108F9007008F800F101F001F728F10108
:10022000F001F00A0034F109F009FB0AF428F80A99
:100230000319F90A74087802031DF7287508790272
:10024000031DF728F901F801F00A0319F10AF11F5B
:10025000F7280000FF340800031383126708A20088
:10026000A30167088400800184170F308000080014
:100270004A29803003138312E7005D29C030E7006C
:100280005D299430E7005D29D430E7005D29803096
:10029000E7005D29031383126708013A031939291E
:1002A0006708023A03193E296708033A03194129EE
:1002B0006708043A0319442947296803F0006708CE
:1002C000F0077008E70070088316E4001F20A10102
:1002D000EA016A08690784000008F0007008031941
:1002E00079296A08690784000008EB008620EA0A79
:1002F00069290130A100080090207008E7000F3044
:100300000005F0000319862900007F296708F00026
:100310000800031383126808840020308000203016
:10032000840A8000840A80000130E9006708093CE3
:1003300003189B29E90A6708633C0318A029E90A06
:1003400003306807F00070088400800184036908A6
:10035000003C0318C5290A30F4006708F000C120EA
:100360007808F0007008800000086702F000F101D2
:10037000031CF1030A30F400F501D2207008E700F5
:10038000303080078403E903A72908000313831290
:10039000E8016808670784000008F0007008031986
:1003A000D9296808670784000008EB008620E80A5E
:1003B000C9290800003003138312CE000130B500B4
:1003C0004330A4006F30A5006D30A6006230A70056
:1003D0006930A8006E30A9006130AA007430AB000B
:1003E0006930AC006F30AD006E30AE002030AF0031
:1003F0004C30B0006F30B1006330B2006B30B300EE
:10040000B4012030CF002A30D0004430D1006F300A
:10041000D2006F30D3007230D4003130D50020309C
:10042000D6004F30D7006E30D8002A30D900DA011C
:100430002030DB002A30DC004430DD006F30DE008D
:100440006F30DF007230E0003230E1002030E20037
:100450004F30E3006E30E4002A30E500E6012A3038
:100460008316A0004430A1006F30A2006F30A300BB
:100470007230A4003130A5002630A6003230A7002B
:100480002030A8004F30A9006E30AA002A30AB00FF
:10049000AC0100308312B8000130B9000230BA005C
:1004A0000330BB000030BC000430BD000530BE008E
:1004B0000630BF000030C0000730C1000830C20065
:1004C0000930C3000030C4000A30C5000030C60047
:1004D0000B30C7000030C8000800062006200620A8
:1004E0006708A000670884008001841780018413D6
:1004F00080140014001700130620001700130620B4
:1005000000170013062080140010001700130620A7
:10051000800180140017001380018015001700135C
:10052000062080010014001700138001001700133B
:100530000620800100170013001400170013062086
:100540008001001700130014801400158015001797
:10055000001306200130A1000800DA21453083167F
:10056000AD006E30AE007430AF006530B000723058
:10057000B1005030B2006130B3007330B40073305A
:10058000B5003A30B600B7012A30B8002A30B900B9
:100590004930BA006E30BB007630BC006130BD001F
:1005A0006C30BE006930BF006430C0002030C10034
:1005B0004330C2006F30C3006430C4006530C500F2
:1005C0002A30C6002A30C700C8012030C9002A30AE
:1005D000CA004430CB006F30CC006F30CD00723099
:1005E000CE003330CF002030D0004F30D1006E30FD
:1005F000D2002A30D300D4012030D5002030D600DC
:100600002A30D7002A30D8004130D9006C30DA00C7
:100610006130DB007230DC006D30DD002030DE0048
:100620004F30DF006E30E0002A30E1002A30E20077
:10063000E30107308312E7006D2201308316E400E6
:100640001F200C308316E4001F20C0308316E40006
:100650001F200830E7002C210130E7000130E800BE
:100660002430E9003821832D01308316E4001F2057
:100670000130E7000130E8002430E9003821023081
:10068000E7000130E800AD30E90038219020700823
:100690000319462B0D30FB00FF30FA00FB0B512BEA
:1006A000542BFA0B512B4E2BF330FA00FA0B562B2E
:1006B00000007C217008B6007008B7007008383F51
:1006C00084000008F0007008B7007008E7004930A7
:1006D000E80089214930E700C6210230B500C02D6D
:1006E00036080F3A031D772B0130B500802B3608F2
:1006F0000D3A031D7E2B0130B500802B0330B50071
:10070000C02D902070080319812B0D30FB00FF30A5
:10071000FA00FB0B8C2B8F2BFA0B8C2B892BF330D5
:10072000FA00FA0B912B00007C217008B6007008CB
:10073000CD007008383F84000008F0007008CD003C
:100740007008E7004930E80089214930E700C621F8
:100750000430B500C02D36080F3A031DB22B01300E
:10076000B500BB2B36080D3A031DB92B0130B5007F
:10077000BB2B0530B500C02D902070080319BC2B91
:100780000D30FB00FF30FA00FB0BC72BCA2BFA0B16
:10079000C72BC42BF330FA00FA0BCC2B00007C21C2
:1007A0007008B6000630B500C02D36080D3A031D9E
:1007B000DC2B0130B500E52B36080F3A031DE32B87
:1007C0000730B500E52B0530B500C02D3708003ADD
:1007D000031DF12B4D08053A031DF12B0C30B5001C
:1007E000F32B0830B500C02D3708023A031DFF2B4C
:1007F0004D08083A031DFF2B0D30B500012C0930C0
:10080000B500C02D3708083A031D0D2C4D08023ADB
:10081000031D0D2C0E30B5000F2C0A30B500C02D75
:100820003708033A031D1B2C4D08033A031D1B2CEC
:100830000F30B5001D2C0B30B500C02D0230E70085
:100840000130E800B830E9003821CE0A4E08B6077A
:1008500003304E0203182F2C0130B500312C10301C
:10086000B500902070080319312C0D30FB00FF30CB
:10087000FA00FB0B3C2C3F2CFA0B3C2C392CF330B0
:10088000FA00FA0B412C00007C217008B600013000
:100890008316E4001F20C02D01308316E4001F20C2
:1008A0000230E7000130E8004F30E9003821013024
:1008B000E7000130E8002430E90038210716081667
:1008C0008813081388122E30FC00FF30FB00FF3025
:1008D000FA00FC0B6C2C732CFB0B6F2C722CFA0B9C
:1008E0006F2C6C2C692CE430FB00FF30FA00FB0B02
:1008F0007A2C7D2CFA0B7A2C772C6F30FA00FA0BBD
:100900007F2C0000071201308316E4001F20CE0167
:100910000130B500C02D01308316E4001F200230E5
:10092000E7000130E8005B30E90038210130E700E2
:100930000130E8002430E900382107168816081233
:10094000081388132E30FC00FF30FB00FF30FA0044
:10095000FC0BAB2CB22CFB0BAE2CB12CFA0BAE2C3F
:10096000AB2CA82CE430FB00FF30FA00FB0BB92CB9
:10097000BC2CFA0BB92CB62C6F30FA00FA0BBE2C3B
:100980000000071201308316E4001F20CE01013061
:10099000B500C02D01308316E4001F200230E700AF
:1009A0000130E800C930E90038210130E7000130AA
:1009B000E8002430E90038210716081288120817C9
:1009C00088132E30FC00FF30FB00FF30FA00FC0BD8
:1009D000EA2CF12CFB0BED2CF02CFA0BED2CEA2C75
:1009E000E72CE430FB00FF30FA00FB0BF82CFB2C6B
:1009F000FA0BF82CF52C6F30FA00FA0BFD2C0000E6
:100A0000071201308316E4001F20CE010130B5002B
:100A1000C02D01308316E4001F200230E7000130B2
:100A2000E800A030E90038210130E7000130E8009B
:100A30002430E90038210716081688160813881391
:100A40002E30FC00FF30FB00FF30FA00FC0B292D9C
:100A5000302DFB0B2C2D2F2DFA0B2C2D292D262D77
:100A6000E430FB00FF30FA00FB0B372D3A2DFA0B78
:100A7000372D342D6F30FA00FA0B3C2D0000071291
:100A800001308316E4001F20CE010130B500C02DD7
:100A90000230E7000130E800D530E90038210130AC
:100AA000E7000130E8002430E90038210716081279
:100AB0008812081388172E30FC00FF30FB00FF302F
:100AC000FA00FC0B642D6B2DFB0B672D6A2DFA0BC6
:100AD000672D642D612DE430FB00FF30FA00FB0B25
:100AE000722D752DFA0B722D6F2D6F30FA00FA0BE7
:100AF000772D0000071201308316E4001F20CE017D
:100B00000130B500C02D3508013A0319342B3508E2
:100B1000023A0319702B3508033A0319812B350863
:100B2000043A0319AB2B3508053A0319BC2B3508D9
:100B3000063A0319D52B3508073A0319E62B350871
:100B4000083A0319F42B3508093A0319022C350821
:100B50000A3A0319102C35080B3A03191E2C3508D4
:100B60000C3A03194C2C35080D3A03198B2C350817
:100B70000E3A0319CA2C35080F3A0319092D482DCE
:100B8000332BC12DFF3FFF3FFF3FFF3FFF3FFF3FA5
:02400E00FB3F76
:00000001FF
